{
  "contractName": "UserStorage",
  "abi": [
    {
      "constant": false,
      "inputs": [
        {
          "name": "_username",
          "type": "bytes32"
        }
      ],
      "name": "createUser",
      "outputs": [
        {
          "name": "",
          "type": "uint256"
        }
      ],
      "payable": false,
      "stateMutability": "nonpayable",
      "type": "function"
    }
  ],
  "bytecode": "0x60606040526000600155341561001457600080fd5b610112806100236000396000f300606060405260043610603f576000357c0100000000000000000000000000000000000000000000000000000000900463ffffffff168063abf7bfd8146044575b600080fd5b3415604e57600080fd5b6066600480803560001916906020019091905050607c565b6040518082815260200191505060405180910390f35b60006001600081548092919060010191905055506040805190810160405280600154815260200183600019168152506000806001548152602001908152602001600020600082015181600001556020820151816001019060001916905590505060015490509190505600a165627a7a72305820f0e20a743658327c448876a00fef4aadad57046ac5811ef1d75aff1b18f0ffb20029",
  "source": "pragma solidity ^0.4.19;\n\ncontract UserStorage{\n\n    struct Profile{\n        uint id;\n        bytes32 username;\n    }\n\n    mapping(uint => Profile) profiles;\n\n    uint latestUserId = 0;\n\n    function createUser(bytes32 _username) public returns(uint){\n        \n        latestUserId++;\n        profiles[latestUserId] = Profile(latestUserId,_username);\n        return latestUserId;\n    }\n\n}",
  "sourcePath": "/Users/andy/tweether/contracts/users/UserStorage.sol",
  "compiler": {
    "name": "solc",
    "version": "0.4.19+commit.c4cbbb05.Emscripten.clang"
  },
  "schemaVersion": "2.0.0",
  "updatedAt": "2018-07-19T13:41:02.094Z"
}