{
  "contractName": "UserStorage",
  "abi": [
    {
      "constant": true,
      "inputs": [],
      "name": "ownerAddr",
      "outputs": [
        {
          "name": "",
          "type": "address"
        }
      ],
      "payable": false,
      "stateMutability": "view",
      "type": "function"
    },
    {
      "constant": true,
      "inputs": [
        {
          "name": "",
          "type": "uint256"
        }
      ],
      "name": "profiles",
      "outputs": [
        {
          "name": "id",
          "type": "uint256"
        },
        {
          "name": "username",
          "type": "bytes32"
        }
      ],
      "payable": false,
      "stateMutability": "view",
      "type": "function"
    },
    {
      "constant": true,
      "inputs": [],
      "name": "controllerAddr",
      "outputs": [
        {
          "name": "",
          "type": "address"
        }
      ],
      "payable": false,
      "stateMutability": "view",
      "type": "function"
    },
    {
      "constant": false,
      "inputs": [
        {
          "name": "_newOwner",
          "type": "address"
        }
      ],
      "name": "transferOwnership",
      "outputs": [],
      "payable": false,
      "stateMutability": "nonpayable",
      "type": "function"
    },
    {
      "constant": false,
      "inputs": [
        {
          "name": "_controllerAddr",
          "type": "address"
        }
      ],
      "name": "setControllerAddr",
      "outputs": [],
      "payable": false,
      "stateMutability": "nonpayable",
      "type": "function"
    },
    {
      "constant": false,
      "inputs": [
        {
          "name": "_username",
          "type": "bytes32"
        }
      ],
      "name": "createUser",
      "outputs": [
        {
          "name": "",
          "type": "uint256"
        }
      ],
      "payable": false,
      "stateMutability": "nonpayable",
      "type": "function"
    }
  ],
  "bytecode": "0x60806040526000600555336000806101000a81548173ffffffffffffffffffffffffffffffffffffffff021916908373ffffffffffffffffffffffffffffffffffffffff160217905550610521806100586000396000f300608060405260043610610078576000357c0100000000000000000000000000000000000000000000000000000000900463ffffffff1680636981fa7d1461007d5780639c675eaa146100c0578063abf7bfd814610117578063c36fe3d61461015c578063ee255c57146101ac578063f2fde38b14610203575b600080fd5b34801561008957600080fd5b506100be600480360381019080803573ffffffffffffffffffffffffffffffffffffffff169060200190929190505050610246565b005b3480156100cc57600080fd5b506100d56102e5565b604051808273ffffffffffffffffffffffffffffffffffffffff1673ffffffffffffffffffffffffffffffffffffffff16815260200191505060405180910390f35b34801561012357600080fd5b50610146600480360381019080803560001916906020019092919050505061030a565b6040518082815260200191505060405180910390f35b34801561016857600080fd5b50610187600480360381019080803590602001909291905050506103d1565b6040518083815260200182600019166000191681526020019250505060405180910390f35b3480156101b857600080fd5b506101c16103f5565b604051808273ffffffffffffffffffffffffffffffffffffffff1673ffffffffffffffffffffffffffffffffffffffff16815260200191505060405180910390f35b34801561020f57600080fd5b50610244600480360381019080803573ffffffffffffffffffffffffffffffffffffffff16906020019092919050505061041b565b005b6000809054906101000a900473ffffffffffffffffffffffffffffffffffffffff1673ffffffffffffffffffffffffffffffffffffffff163373ffffffffffffffffffffffffffffffffffffffff161415156102a157600080fd5b80600360006101000a81548173ffffffffffffffffffffffffffffffffffffffff021916908373ffffffffffffffffffffffffffffffffffffffff16021790555050565b6000809054906101000a900473ffffffffffffffffffffffffffffffffffffffff1681565b6000600160009054906101000a900473ffffffffffffffffffffffffffffffffffffffff1673ffffffffffffffffffffffffffffffffffffffff163373ffffffffffffffffffffffffffffffffffffffff1614151561036857600080fd5b60056000815480929190600101919050555060408051908101604052806005548152602001836000191681525060046000600554815260200190815260200160002060008201518160000155602082015181600101906000191690559050506005549050919050565b60046020528060005260406000206000915090508060000154908060010154905082565b600160009054906101000a900473ffffffffffffffffffffffffffffffffffffffff1681565b6000809054906101000a900473ffffffffffffffffffffffffffffffffffffffff1673ffffffffffffffffffffffffffffffffffffffff163373ffffffffffffffffffffffffffffffffffffffff1614151561047657600080fd5b600073ffffffffffffffffffffffffffffffffffffffff168173ffffffffffffffffffffffffffffffffffffffff16141515156104b257600080fd5b806000806101000a81548173ffffffffffffffffffffffffffffffffffffffff021916908373ffffffffffffffffffffffffffffffffffffffff160217905550505600a165627a7a723058207ed466719bba99bbd439fb41e2ca8f7ff0a011c0434a366092c209a942ba430a0029",
  "source": "pragma solidity ^0.4.19;\n\nimport \"../helpers/BaseStorage.sol\";\n\ncontract UserStorage is BaseStorage{\n\n    struct Profile{\n        uint id;\n        bytes32 username;\n    }\n    \n    address ownerAddr;\n    address controllerAddr;\n\n    function setControllerAddr(address _controllerAddr) public onlyOwner{\n        controllerAddr = _controllerAddr;\n    }\n\n    mapping(uint => Profile) public profiles;\n\n    uint latestUserId = 0;\n\n    function createUser(bytes32 _username) public onlyController returns(uint) {\n        latestUserId++;\n        profiles[latestUserId] = Profile(latestUserId,_username);\n        return latestUserId;\n    }\n\n}",
  "sourcePath": "/Users/andy/tweeteth/tweether/contracts/users/UserStorage.sol",
  "compiler": {
    "name": "solc",
    "version": "0.4.24+commit.e67f0147.Emscripten.clang"
  },
  "schemaVersion": "2.0.1",
  "updatedAt": "2018-07-25T07:49:15.229Z"
}