{
  "contractName": "TweetStorage",
  "abi": [
    {
      "constant": false,
      "inputs": [
        {
          "name": "_controllerAddr",
          "type": "address"
        }
      ],
      "name": "setControllerAddr",
      "outputs": [],
      "payable": false,
      "stateMutability": "nonpayable",
      "type": "function"
    },
    {
      "constant": true,
      "inputs": [],
      "name": "ownerAddr",
      "outputs": [
        {
          "name": "",
          "type": "address"
        }
      ],
      "payable": false,
      "stateMutability": "view",
      "type": "function"
    },
    {
      "constant": true,
      "inputs": [
        {
          "name": "",
          "type": "uint256"
        }
      ],
      "name": "tweets",
      "outputs": [
        {
          "name": "id",
          "type": "uint256"
        },
        {
          "name": "text",
          "type": "string"
        },
        {
          "name": "userId",
          "type": "uint256"
        },
        {
          "name": "postedAt",
          "type": "uint256"
        }
      ],
      "payable": false,
      "stateMutability": "view",
      "type": "function"
    },
    {
      "constant": true,
      "inputs": [],
      "name": "controllerAddr",
      "outputs": [
        {
          "name": "",
          "type": "address"
        }
      ],
      "payable": false,
      "stateMutability": "view",
      "type": "function"
    },
    {
      "constant": false,
      "inputs": [
        {
          "name": "_newOwner",
          "type": "address"
        }
      ],
      "name": "transferOwnership",
      "outputs": [],
      "payable": false,
      "stateMutability": "nonpayable",
      "type": "function"
    },
    {
      "constant": false,
      "inputs": [
        {
          "name": "_userId",
          "type": "uint256"
        },
        {
          "name": "_text",
          "type": "string"
        }
      ],
      "name": "createTweet",
      "outputs": [
        {
          "name": "",
          "type": "uint256"
        }
      ],
      "payable": false,
      "stateMutability": "nonpayable",
      "type": "function"
    }
  ],
  "bytecode": "0x60606040526000600355336000806101000a81548173ffffffffffffffffffffffffffffffffffffffff021916908373ffffffffffffffffffffffffffffffffffffffff160217905550610697806100586000396000f300606060405260043610610078576000357c0100000000000000000000000000000000000000000000000000000000900463ffffffff1680636981fa7d1461007d5780637cc82f20146100b65780639c675eaa14610130578063e8d857b014610185578063ee255c5714610253578063f2fde38b146102a8575b600080fd5b341561008857600080fd5b6100b4600480803573ffffffffffffffffffffffffffffffffffffffff169060200190919050506102e1565b005b34156100c157600080fd5b61011a600480803590602001909190803590602001908201803590602001908080601f01602080910402602001604051908101604052809392919081815260200183838082843782019150505050505091905050610380565b6040518082815260200191505060405180910390f35b341561013b57600080fd5b610143610472565b604051808273ffffffffffffffffffffffffffffffffffffffff1673ffffffffffffffffffffffffffffffffffffffff16815260200191505060405180910390f35b341561019057600080fd5b6101a66004808035906020019091905050610497565b60405180858152602001806020018481526020018381526020018281038252858181546001816001161561010002031660029004815260200191508054600181600116156101000203166002900480156102415780601f1061021657610100808354040283529160200191610241565b820191906000526020600020905b81548152906001019060200180831161022457829003601f168201915b50509550505050505060405180910390f35b341561025e57600080fd5b6102666104c6565b604051808273ffffffffffffffffffffffffffffffffffffffff1673ffffffffffffffffffffffffffffffffffffffff16815260200191505060405180910390f35b34156102b357600080fd5b6102df600480803573ffffffffffffffffffffffffffffffffffffffff169060200190919050506104ec565b005b6000809054906101000a900473ffffffffffffffffffffffffffffffffffffffff1673ffffffffffffffffffffffffffffffffffffffff163373ffffffffffffffffffffffffffffffffffffffff1614151561033c57600080fd5b80600160006101000a81548173ffffffffffffffffffffffffffffffffffffffff021916908373ffffffffffffffffffffffffffffffffffffffff16021790555050565b6000600160009054906101000a900473ffffffffffffffffffffffffffffffffffffffff1673ffffffffffffffffffffffffffffffffffffffff163373ffffffffffffffffffffffffffffffffffffffff161415156103de57600080fd5b60036000815480929190600101919050555060806040519081016040528060035481526020018381526020018481526020014281525060026000600354815260200190815260200160002060008201518160000155602082015181600101908051906020019061044f9291906105c6565b506040820151816002015560608201518160030155905050600354905092915050565b6000809054906101000a900473ffffffffffffffffffffffffffffffffffffffff1681565b600260205280600052604060002060009150905080600001549080600101908060020154908060030154905084565b600160009054906101000a900473ffffffffffffffffffffffffffffffffffffffff1681565b6000809054906101000a900473ffffffffffffffffffffffffffffffffffffffff1673ffffffffffffffffffffffffffffffffffffffff163373ffffffffffffffffffffffffffffffffffffffff1614151561054757600080fd5b600073ffffffffffffffffffffffffffffffffffffffff168173ffffffffffffffffffffffffffffffffffffffff161415151561058357600080fd5b806000806101000a81548173ffffffffffffffffffffffffffffffffffffffff021916908373ffffffffffffffffffffffffffffffffffffffff16021790555050565b828054600181600116156101000203166002900490600052602060002090601f016020900481019282601f1061060757805160ff1916838001178555610635565b82800160010185558215610635579182015b82811115610634578251825591602001919060010190610619565b5b5090506106429190610646565b5090565b61066891905b8082111561066457600081600090555060010161064c565b5090565b905600a165627a7a72305820354dc85d266483286c4e238dfdd2686e41913ff9e74f5301a939e453d293a0cf0029",
  "source": "pragma solidity ^0.4.19;\n\n\n// Import the BaseStorage contract\nimport \"../helpers/BaseStorage.sol\";\n\n\ncontract TweetStorage is BaseStorage{\n\n    mapping(uint => Tweet) public tweets;\n\n    struct Tweet{\n        uint id;\n        string text;\n        uint userId;\n        uint postedAt;\n    }\n\n    uint latestTweetId = 0;\n\n    function createTweet(uint _userId , string _text) public onlyController returns(uint){\n        latestTweetId++;\n        tweets[latestTweetId] = Tweet(latestTweetId,_text,_userId,now);\n        return latestTweetId;\n    }\n\n}",
  "sourcePath": "/Users/andy/tweether/tweether/contracts/tweets/TweetStorage.sol",
  "compiler": {
    "name": "solc",
    "version": "0.4.19+commit.c4cbbb05.Emscripten.clang"
  },
  "schemaVersion": "2.0.0",
  "updatedAt": "2018-07-27T08:44:22.248Z"
}