{
  "contractName": "UserStorage",
  "abi": [
    {
      "constant": false,
      "inputs": [
        {
          "name": "_controllerAddr",
          "type": "address"
        }
      ],
      "name": "setControllerAddr",
      "outputs": [],
      "payable": false,
      "stateMutability": "nonpayable",
      "type": "function"
    },
    {
      "constant": true,
      "inputs": [],
      "name": "ownerAddr",
      "outputs": [
        {
          "name": "",
          "type": "address"
        }
      ],
      "payable": false,
      "stateMutability": "view",
      "type": "function"
    },
    {
      "constant": true,
      "inputs": [
        {
          "name": "",
          "type": "uint256"
        }
      ],
      "name": "profiles",
      "outputs": [
        {
          "name": "id",
          "type": "uint256"
        },
        {
          "name": "username",
          "type": "bytes32"
        }
      ],
      "payable": false,
      "stateMutability": "view",
      "type": "function"
    },
    {
      "constant": true,
      "inputs": [],
      "name": "controllerAddr",
      "outputs": [
        {
          "name": "",
          "type": "address"
        }
      ],
      "payable": false,
      "stateMutability": "view",
      "type": "function"
    },
    {
      "constant": false,
      "inputs": [
        {
          "name": "_newOwner",
          "type": "address"
        }
      ],
      "name": "transferOwnership",
      "outputs": [],
      "payable": false,
      "stateMutability": "nonpayable",
      "type": "function"
    },
    {
      "constant": false,
      "inputs": [
        {
          "name": "_username",
          "type": "bytes32"
        }
      ],
      "name": "createUser",
      "outputs": [
        {
          "name": "",
          "type": "uint256"
        }
      ],
      "payable": false,
      "stateMutability": "nonpayable",
      "type": "function"
    }
  ],
  "bytecode": "0x60606040526000600555336000806101000a81548173ffffffffffffffffffffffffffffffffffffffff021916908373ffffffffffffffffffffffffffffffffffffffff1602179055506104f5806100586000396000f300606060405260043610610078576000357c0100000000000000000000000000000000000000000000000000000000900463ffffffff1680636981fa7d1461007d5780639c675eaa146100b6578063abf7bfd81461010b578063c36fe3d614610146578063ee255c571461018c578063f2fde38b146101e1575b600080fd5b341561008857600080fd5b6100b4600480803573ffffffffffffffffffffffffffffffffffffffff1690602001909190505061021a565b005b34156100c157600080fd5b6100c96102b9565b604051808273ffffffffffffffffffffffffffffffffffffffff1673ffffffffffffffffffffffffffffffffffffffff16815260200191505060405180910390f35b341561011657600080fd5b6101306004808035600019169060200190919050506102de565b6040518082815260200191505060405180910390f35b341561015157600080fd5b61016760048080359060200190919050506103a5565b6040518083815260200182600019166000191681526020019250505060405180910390f35b341561019757600080fd5b61019f6103c9565b604051808273ffffffffffffffffffffffffffffffffffffffff1673ffffffffffffffffffffffffffffffffffffffff16815260200191505060405180910390f35b34156101ec57600080fd5b610218600480803573ffffffffffffffffffffffffffffffffffffffff169060200190919050506103ef565b005b6000809054906101000a900473ffffffffffffffffffffffffffffffffffffffff1673ffffffffffffffffffffffffffffffffffffffff163373ffffffffffffffffffffffffffffffffffffffff1614151561027557600080fd5b80600160006101000a81548173ffffffffffffffffffffffffffffffffffffffff021916908373ffffffffffffffffffffffffffffffffffffffff16021790555050565b6000809054906101000a900473ffffffffffffffffffffffffffffffffffffffff1681565b6000600160009054906101000a900473ffffffffffffffffffffffffffffffffffffffff1673ffffffffffffffffffffffffffffffffffffffff163373ffffffffffffffffffffffffffffffffffffffff1614151561033c57600080fd5b60056000815480929190600101919050555060408051908101604052806005548152602001836000191681525060046000600554815260200190815260200160002060008201518160000155602082015181600101906000191690559050506005549050919050565b60046020528060005260406000206000915090508060000154908060010154905082565b600160009054906101000a900473ffffffffffffffffffffffffffffffffffffffff1681565b6000809054906101000a900473ffffffffffffffffffffffffffffffffffffffff1673ffffffffffffffffffffffffffffffffffffffff163373ffffffffffffffffffffffffffffffffffffffff1614151561044a57600080fd5b600073ffffffffffffffffffffffffffffffffffffffff168173ffffffffffffffffffffffffffffffffffffffff161415151561048657600080fd5b806000806101000a81548173ffffffffffffffffffffffffffffffffffffffff021916908373ffffffffffffffffffffffffffffffffffffffff160217905550505600a165627a7a72305820f9ee25bd687f5499a3869fb8091981a2404a4ddef22a82fd0ec0935736b9cade0029",
  "source": "pragma solidity ^0.4.19;\n\nimport \"../helpers/BaseStorage.sol\";\n\ncontract UserStorage is BaseStorage{\n\n    struct Profile{\n        uint id;\n        bytes32 username;\n    }\n    \n    address ownerAddr;\n    address controllerAddr;\n\n    mapping(uint => Profile) public profiles;\n\n    uint latestUserId = 0;\n\n    function createUser(bytes32 _username) public onlyController returns(uint) {\n        latestUserId++;\n        profiles[latestUserId] = Profile(latestUserId,_username);\n        return latestUserId;\n    }\n\n}",
  "sourcePath": "/Users/andy/tweether/tweether/contracts/users/UserStorage.sol",
  "compiler": {
    "name": "solc",
    "version": "0.4.19+commit.c4cbbb05.Emscripten.clang"
  },
  "schemaVersion": "2.0.0",
  "updatedAt": "2018-07-27T08:44:21.962Z"
}